{
  "contractName": "Election",
  "abi": [
    {
      "inputs": [],
      "stateMutability": "nonpayable",
      "type": "constructor"
    },
    {
      "inputs": [
        {
          "internalType": "uint256",
          "name": "",
          "type": "uint256"
        }
      ],
      "name": "candidates",
      "outputs": [
        {
          "internalType": "uint256",
          "name": "id",
          "type": "uint256"
        },
        {
          "internalType": "string",
          "name": "name",
          "type": "string"
        },
        {
          "internalType": "uint256",
          "name": "voteCount",
          "type": "uint256"
        }
      ],
      "stateMutability": "view",
      "type": "function",
      "constant": true
    },
    {
      "inputs": [],
      "name": "candidatesCount",
      "outputs": [
        {
          "internalType": "uint256",
          "name": "",
          "type": "uint256"
        }
      ],
      "stateMutability": "view",
      "type": "function",
      "constant": true
    },
    {
      "inputs": [
        {
          "internalType": "address",
          "name": "",
          "type": "address"
        }
      ],
      "name": "voters",
      "outputs": [
        {
          "internalType": "bool",
          "name": "",
          "type": "bool"
        }
      ],
      "stateMutability": "view",
      "type": "function",
      "constant": true
    },
    {
      "inputs": [
        {
          "internalType": "uint256",
          "name": "",
          "type": "uint256"
        }
      ],
      "name": "wm1Candidates",
      "outputs": [
        {
          "internalType": "uint256",
          "name": "id",
          "type": "uint256"
        },
        {
          "internalType": "string",
          "name": "name",
          "type": "string"
        },
        {
          "internalType": "uint256",
          "name": "voteCount",
          "type": "uint256"
        }
      ],
      "stateMutability": "view",
      "type": "function",
      "constant": true
    },
    {
      "inputs": [],
      "name": "wm1CandidatesCount",
      "outputs": [
        {
          "internalType": "uint256",
          "name": "",
          "type": "uint256"
        }
      ],
      "stateMutability": "view",
      "type": "function",
      "constant": true
    },
    {
      "inputs": [
        {
          "internalType": "address",
          "name": "",
          "type": "address"
        }
      ],
      "name": "wm1Voters",
      "outputs": [
        {
          "internalType": "bool",
          "name": "",
          "type": "bool"
        }
      ],
      "stateMutability": "view",
      "type": "function",
      "constant": true
    },
    {
      "inputs": [
        {
          "internalType": "uint256",
          "name": "",
          "type": "uint256"
        }
      ],
      "name": "wm2Candidates",
      "outputs": [
        {
          "internalType": "uint256",
          "name": "id",
          "type": "uint256"
        },
        {
          "internalType": "string",
          "name": "name",
          "type": "string"
        },
        {
          "internalType": "uint256",
          "name": "voteCount",
          "type": "uint256"
        }
      ],
      "stateMutability": "view",
      "type": "function",
      "constant": true
    },
    {
      "inputs": [],
      "name": "wm2CandidatesCount",
      "outputs": [
        {
          "internalType": "uint256",
          "name": "",
          "type": "uint256"
        }
      ],
      "stateMutability": "view",
      "type": "function",
      "constant": true
    },
    {
      "inputs": [
        {
          "internalType": "address",
          "name": "",
          "type": "address"
        }
      ],
      "name": "wm2Voters",
      "outputs": [
        {
          "internalType": "bool",
          "name": "",
          "type": "bool"
        }
      ],
      "stateMutability": "view",
      "type": "function",
      "constant": true
    },
    {
      "inputs": [
        {
          "internalType": "uint256",
          "name": "",
          "type": "uint256"
        }
      ],
      "name": "wm3Candidates",
      "outputs": [
        {
          "internalType": "uint256",
          "name": "id",
          "type": "uint256"
        },
        {
          "internalType": "string",
          "name": "name",
          "type": "string"
        },
        {
          "internalType": "uint256",
          "name": "voteCount",
          "type": "uint256"
        }
      ],
      "stateMutability": "view",
      "type": "function",
      "constant": true
    },
    {
      "inputs": [],
      "name": "wm3CandidatesCount",
      "outputs": [
        {
          "internalType": "uint256",
          "name": "",
          "type": "uint256"
        }
      ],
      "stateMutability": "view",
      "type": "function",
      "constant": true
    },
    {
      "inputs": [
        {
          "internalType": "address",
          "name": "",
          "type": "address"
        }
      ],
      "name": "wm3Voters",
      "outputs": [
        {
          "internalType": "bool",
          "name": "",
          "type": "bool"
        }
      ],
      "stateMutability": "view",
      "type": "function",
      "constant": true
    },
    {
      "inputs": [
        {
          "internalType": "uint256",
          "name": "",
          "type": "uint256"
        }
      ],
      "name": "wm4Candidates",
      "outputs": [
        {
          "internalType": "uint256",
          "name": "id",
          "type": "uint256"
        },
        {
          "internalType": "string",
          "name": "name",
          "type": "string"
        },
        {
          "internalType": "uint256",
          "name": "voteCount",
          "type": "uint256"
        }
      ],
      "stateMutability": "view",
      "type": "function",
      "constant": true
    },
    {
      "inputs": [],
      "name": "wm4CandidatesCount",
      "outputs": [
        {
          "internalType": "uint256",
          "name": "",
          "type": "uint256"
        }
      ],
      "stateMutability": "view",
      "type": "function",
      "constant": true
    },
    {
      "inputs": [
        {
          "internalType": "address",
          "name": "",
          "type": "address"
        }
      ],
      "name": "wm4Voters",
      "outputs": [
        {
          "internalType": "bool",
          "name": "",
          "type": "bool"
        }
      ],
      "stateMutability": "view",
      "type": "function",
      "constant": true
    },
    {
      "inputs": [
        {
          "internalType": "uint256",
          "name": "_candidateId",
          "type": "uint256"
        }
      ],
      "name": "vote",
      "outputs": [],
      "stateMutability": "nonpayable",
      "type": "function"
    },
    {
      "inputs": [
        {
          "internalType": "uint256",
          "name": "_candidateId",
          "type": "uint256"
        }
      ],
      "name": "wm1Vote",
      "outputs": [],
      "stateMutability": "nonpayable",
      "type": "function"
    },
    {
      "inputs": [
        {
          "internalType": "uint256",
          "name": "_candidateId",
          "type": "uint256"
        }
      ],
      "name": "wm2Vote",
      "outputs": [],
      "stateMutability": "nonpayable",
      "type": "function"
    },
    {
      "inputs": [
        {
          "internalType": "uint256",
          "name": "_candidateId",
          "type": "uint256"
        }
      ],
      "name": "wm3Vote",
      "outputs": [],
      "stateMutability": "nonpayable",
      "type": "function"
    },
    {
      "inputs": [
        {
          "internalType": "uint256",
          "name": "_candidateId",
          "type": "uint256"
        }
      ],
      "name": "wm4Vote",
      "outputs": [],
      "stateMutability": "nonpayable",
      "type": "function"
    }
  ],
  "bytecode": "0x60806040523480156200001157600080fd5b50620000586040518060400160405280601481526020017f43686169726d616e2043616e64696461746520310000000000000000000000008152506200054a60201b60201c565b6200009e6040518060400160405280601481526020017f43686169726d616e2043616e64696461746520320000000000000000000000008152506200054a60201b60201c565b620000e46040518060400160405280601481526020017f43686169726d616e2043616e64696461746520330000000000000000000000008152506200054a60201b60201c565b6200012a6040518060400160405280601981526020017f576f72642d31204d656d6265722043616e646964617465203100000000000000815250620005d060201b60201c565b620001706040518060400160405280601981526020017f576f72642d31204d656d6265722043616e646964617465203200000000000000815250620005d060201b60201c565b620001b66040518060400160405280601981526020017f576f72642d31204d656d6265722043616e646964617465203300000000000000815250620005d060201b60201c565b620001fc6040518060400160405280601981526020017f576f72642d31204d656d6265722043616e646964617465203400000000000000815250620005d060201b60201c565b620002426040518060400160405280601981526020017f576f72642d31204d656d6265722043616e646964617465203500000000000000815250620005d060201b60201c565b620002886040518060400160405280601981526020017f576f72642d32204d656d6265722043616e6469646174652031000000000000008152506200065660201b60201c565b620002ce6040518060400160405280601981526020017f576f72642d32204d656d6265722043616e6469646174652032000000000000008152506200065660201b60201c565b620003146040518060400160405280601981526020017f576f72642d32204d656d6265722043616e6469646174652033000000000000008152506200065660201b60201c565b6200035a6040518060400160405280601981526020017f576f72642d32204d656d6265722043616e6469646174652034000000000000008152506200065660201b60201c565b620003a06040518060400160405280601981526020017f576f72642d32204d656d6265722043616e6469646174652035000000000000008152506200065660201b60201c565b620003e66040518060400160405280601981526020017f576f72642d33204d656d6265722043616e646964617465203100000000000000815250620006dc60201b60201c565b6200042c6040518060400160405280601981526020017f576f72642d33204d656d6265722043616e646964617465203200000000000000815250620006dc60201b60201c565b620004726040518060400160405280601981526020017f576f72642d33204d656d6265722043616e646964617465203300000000000000815250620006dc60201b60201c565b620004b86040518060400160405280601981526020017f576f72642d33204d656d6265722043616e646964617465203400000000000000815250620006dc60201b60201c565b620004fe6040518060400160405280601981526020017f576f72642d34204d656d6265722043616e6469646174652031000000000000008152506200076260201b60201c565b620005446040518060400160405280601981526020017f576f72642d34204d656d6265722043616e6469646174652032000000000000008152506200076260201b60201c565b62000984565b600a60008154809291906200055f90620008d8565b91905055506040518060600160405280600a548152602001828152602001600081525060056000600a548152602001908152602001600020600082015181600001556020820151816001019080519060200190620005bf929190620007e8565b506040820151816002015590505050565b600b6000815480929190620005e590620008d8565b91905055506040518060600160405280600b548152602001828152602001600081525060066000600b54815260200190815260200160002060008201518160000155602082015181600101908051906020019062000645929190620007e8565b506040820151816002015590505050565b600c60008154809291906200066b90620008d8565b91905055506040518060600160405280600c548152602001828152602001600081525060076000600c548152602001908152602001600020600082015181600001556020820151816001019080519060200190620006cb929190620007e8565b506040820151816002015590505050565b600d6000815480929190620006f190620008d8565b91905055506040518060600160405280600d548152602001828152602001600081525060086000600d54815260200190815260200160002060008201518160000155602082015181600101908051906020019062000751929190620007e8565b506040820151816002015590505050565b600e60008154809291906200077790620008d8565b91905055506040518060600160405280600e548152602001828152602001600081525060096000600e548152602001908152602001600020600082015181600001556020820151816001019080519060200190620007d7929190620007e8565b506040820151816002015590505050565b828054620007f690620008a2565b90600052602060002090601f0160209004810192826200081a576000855562000866565b82601f106200083557805160ff191683800117855562000866565b8280016001018555821562000866579182015b828111156200086557825182559160200191906001019062000848565b5b50905062000875919062000879565b5090565b5b80821115620008945760008160009055506001016200087a565b5090565b6000819050919050565b60006002820490506001821680620008bb57607f821691505b60208210811415620008d257620008d162000955565b5b50919050565b6000620008e58262000898565b91507fffffffffffffffffffffffffffffffffffffffffffffffffffffffffffffffff8214156200091b576200091a62000926565b5b600182019050919050565b7f4e487b7100000000000000000000000000000000000000000000000000000000600052601160045260246000fd5b7f4e487b7100000000000000000000000000000000000000000000000000000000600052602260045260246000fd5b61107b80620009946000396000f3fe608060405234801561001057600080fd5b506004361061012c5760003560e01c8063732ab2c5116100ad578063a3ec138d11610071578063a3ec138d14610371578063a66da3e7146103a1578063a9e9090f146103d3578063e68ae34214610403578063fe07a9691461041f5761012c565b8063732ab2c5146102a55780637aaaff45146102d7578063855a034c146103075780638c6fd97e1461032357806390fb8a7a146103415761012c565b8063383853fc116100f4578063383853fc146101eb57806346e8f8c11461021d57806368cdb87c1461023b5780636be3643b146102575780637299339f146102735761012c565b80630121b93f146101315780630abe7b941461014d5780632d35a8a21461017d5780632fc219c81461019b5780633477ee2e146101b9575b600080fd5b61014b60048036038101906101469190610da2565b61043d565b005b61016760048036038101906101629190610d79565b610534565b6040516101749190610e22565b60405180910390f35b610185610554565b6040516101929190610e3d565b60405180910390f35b6101a361055a565b6040516101b09190610e3d565b60405180910390f35b6101d360048036038101906101ce9190610da2565b610560565b6040516101e293929190610e58565b60405180910390f35b61020560048036038101906102009190610da2565b610612565b60405161021493929190610e58565b60405180910390f35b6102256106c4565b6040516102329190610e3d565b60405180910390f35b61025560048036038101906102509190610da2565b6106ca565b005b610271600480360381019061026c9190610da2565b6107c3565b005b61028d60048036038101906102889190610da2565b6108bb565b60405161029c93929190610e58565b60405180910390f35b6102bf60048036038101906102ba9190610da2565b61096d565b6040516102ce93929190610e58565b60405180910390f35b6102f160048036038101906102ec9190610d79565b610a1f565b6040516102fe9190610e22565b60405180910390f35b610321600480360381019061031c9190610da2565b610a3f565b005b61032b610b38565b6040516103389190610e3d565b60405180910390f35b61035b60048036038101906103569190610d79565b610b3e565b6040516103689190610e22565b60405180910390f35b61038b60048036038101906103869190610d79565b610b5e565b6040516103989190610e22565b60405180910390f35b6103bb60048036038101906103b69190610da2565b610b7e565b6040516103ca93929190610e58565b60405180910390f35b6103ed60048036038101906103e89190610d79565b610c30565b6040516103fa9190610e22565b60405180910390f35b61041d60048036038101906104189190610da2565b610c50565b005b610427610d49565b6040516104349190610e3d565b60405180910390f35b6000803373ffffffffffffffffffffffffffffffffffffffff1673ffffffffffffffffffffffffffffffffffffffff16815260200190815260200160002060009054906101000a900460ff161561049357600080fd5b6000811180156104a55750600a548111155b6104ae57600080fd5b60016000803373ffffffffffffffffffffffffffffffffffffffff1673ffffffffffffffffffffffffffffffffffffffff16815260200190815260200160002060006101000a81548160ff02191690831515021790555060056000828152602001908152602001600020600201600081548092919061052c90610f5f565b919050555050565b60036020528060005260406000206000915054906101000a900460ff1681565b600a5481565b600c5481565b600560205280600052604060002060009150905080600001549080600101805461058990610f2d565b80601f01602080910402602001604051908101604052809291908181526020018280546105b590610f2d565b80156106025780601f106105d757610100808354040283529160200191610602565b820191906000526020600020905b8154815290600101906020018083116105e557829003601f168201915b5050505050908060020154905083565b600660205280600052604060002060009150905080600001549080600101805461063b90610f2d565b80601f016020809104026020016040519081016040528092919081815260200182805461066790610f2d565b80156106b45780601f10610689576101008083540402835291602001916106b4565b820191906000526020600020905b81548152906001019060200180831161069757829003601f168201915b5050505050908060020154905083565b600b5481565b600260003373ffffffffffffffffffffffffffffffffffffffff1673ffffffffffffffffffffffffffffffffffffffff16815260200190815260200160002060009054906101000a900460ff161561072157600080fd5b6000811180156107335750600c548111155b61073c57600080fd5b6001600260003373ffffffffffffffffffffffffffffffffffffffff1673ffffffffffffffffffffffffffffffffffffffff16815260200190815260200160002060006101000a81548160ff0219169083151502179055506007600082815260200190815260200160002060020160008154809291906107bb90610f5f565b919050555050565b600160003373ffffffffffffffffffffffffffffffffffffffff1673ffffffffffffffffffffffffffffffffffffffff16815260200190815260200160002060009054906101000a900460ff161561081a57600080fd5b60008111801561082c5750600b548111155b61083557600080fd5b60018060003373ffffffffffffffffffffffffffffffffffffffff1673ffffffffffffffffffffffffffffffffffffffff16815260200190815260200160002060006101000a81548160ff0219169083151502179055506006600082815260200190815260200160002060020160008154809291906108b390610f5f565b919050555050565b60096020528060005260406000206000915090508060000154908060010180546108e490610f2d565b80601f016020809104026020016040519081016040528092919081815260200182805461091090610f2d565b801561095d5780601f106109325761010080835404028352916020019161095d565b820191906000526020600020905b81548152906001019060200180831161094057829003601f168201915b5050505050908060020154905083565b600760205280600052604060002060009150905080600001549080600101805461099690610f2d565b80601f01602080910402602001604051908101604052809291908181526020018280546109c290610f2d565b8015610a0f5780601f106109e457610100808354040283529160200191610a0f565b820191906000526020600020905b8154815290600101906020018083116109f257829003601f168201915b5050505050908060020154905083565b60046020528060005260406000206000915054906101000a900460ff1681565b600360003373ffffffffffffffffffffffffffffffffffffffff1673ffffffffffffffffffffffffffffffffffffffff16815260200190815260200160002060009054906101000a900460ff1615610a9657600080fd5b600081118015610aa85750600d548111155b610ab157600080fd5b6001600360003373ffffffffffffffffffffffffffffffffffffffff1673ffffffffffffffffffffffffffffffffffffffff16815260200190815260200160002060006101000a81548160ff021916908315150217905550600860008281526020019081526020016000206002016000815480929190610b3090610f5f565b919050555050565b600d5481565b60026020528060005260406000206000915054906101000a900460ff1681565b60006020528060005260406000206000915054906101000a900460ff1681565b6008602052806000526040600020600091509050806000015490806001018054610ba790610f2d565b80601f0160208091040260200160405190810160405280929190818152602001828054610bd390610f2d565b8015610c205780601f10610bf557610100808354040283529160200191610c20565b820191906000526020600020905b815481529060010190602001808311610c0357829003601f168201915b5050505050908060020154905083565b60016020528060005260406000206000915054906101000a900460ff1681565b600460003373ffffffffffffffffffffffffffffffffffffffff1673ffffffffffffffffffffffffffffffffffffffff16815260200190815260200160002060009054906101000a900460ff1615610ca757600080fd5b600081118015610cb95750600e548111155b610cc257600080fd5b6001600460003373ffffffffffffffffffffffffffffffffffffffff1673ffffffffffffffffffffffffffffffffffffffff16815260200190815260200160002060006101000a81548160ff021916908315150217905550600960008281526020019081526020016000206002016000815480929190610d4190610f5f565b919050555050565b600e5481565b600081359050610d5e81611017565b92915050565b600081359050610d738161102e565b92915050565b600060208284031215610d8b57600080fd5b6000610d9984828501610d4f565b91505092915050565b600060208284031215610db457600080fd5b6000610dc284828501610d64565b91505092915050565b610dd481610ec4565b82525050565b6000610de582610e96565b610def8185610ea1565b9350610dff818560208601610efa565b610e0881611006565b840191505092915050565b610e1c81610ef0565b82525050565b6000602082019050610e376000830184610dcb565b92915050565b6000602082019050610e526000830184610e13565b92915050565b6000606082019050610e6d6000830186610e13565b8181036020830152610e7f8185610dda565b9050610e8e6040830184610e13565b949350505050565b600081519050919050565b600082825260208201905092915050565b6000610ebd82610ed0565b9050919050565b60008115159050919050565b600073ffffffffffffffffffffffffffffffffffffffff82169050919050565b6000819050919050565b60005b83811015610f18578082015181840152602081019050610efd565b83811115610f27576000848401525b50505050565b60006002820490506001821680610f4557607f821691505b60208210811415610f5957610f58610fd7565b5b50919050565b6000610f6a82610ef0565b91507fffffffffffffffffffffffffffffffffffffffffffffffffffffffffffffffff821415610f9d57610f9c610fa8565b5b600182019050919050565b7f4e487b7100000000000000000000000000000000000000000000000000000000600052601160045260246000fd5b7f4e487b7100000000000000000000000000000000000000000000000000000000600052602260045260246000fd5b6000601f19601f8301169050919050565b61102081610eb2565b811461102b57600080fd5b50565b61103781610ef0565b811461104257600080fd5b5056fea2646970667358221220f8b22a70d737b86cd11b929a52044a0bdd6bcef0954d22d6bf367eec7609937664736f6c63430008000033",
  "immutableReferences": {},
  "source": "// SPDX-License-Identifier: MIT \npragma solidity ^0.8.0;\n\ncontract Election {\n    struct Candidate {\n        uint id;\n        string name;\n        uint voteCount;\n    }\n    \n    mapping(address => bool) public voters;\n    mapping(address => bool) public wm1Voters;\n    mapping(address => bool) public wm2Voters;\n    mapping(address => bool) public wm3Voters;\n    mapping(address => bool) public wm4Voters;\n    \n    mapping(uint => Candidate) public candidates;\n    mapping(uint => Candidate) public wm1Candidates;\n    mapping(uint => Candidate) public wm2Candidates;\n    mapping(uint => Candidate) public wm3Candidates;\n    mapping(uint => Candidate) public wm4Candidates;\n    \n    // Store Candidates Count\n    uint public candidatesCount;\n    uint public wm1CandidatesCount;\n    uint public wm2CandidatesCount;\n    uint public wm3CandidatesCount;\n    uint public wm4CandidatesCount;\n\n    constructor() {\n        //Chairman Candidate\n        addCandidate(\"Chairman Candidate 1\");\n        addCandidate(\"Chairman Candidate 2\");\n        addCandidate(\"Chairman Candidate 3\");\n\n        //Word no 1 Member Candidate\n        wm1AddCandidate(\"Word-1 Member Candidate 1\");\n        wm1AddCandidate(\"Word-1 Member Candidate 2\");\n        wm1AddCandidate(\"Word-1 Member Candidate 3\");\n        wm1AddCandidate(\"Word-1 Member Candidate 4\");\n        wm1AddCandidate(\"Word-1 Member Candidate 5\");\n\n        //Word no 2 Member Candidate\n        wm2AddCandidate(\"Word-2 Member Candidate 1\");\n        wm2AddCandidate(\"Word-2 Member Candidate 2\");\n        wm2AddCandidate(\"Word-2 Member Candidate 3\");\n        wm2AddCandidate(\"Word-2 Member Candidate 4\");\n        wm2AddCandidate(\"Word-2 Member Candidate 5\");\n\n        //Word no 3 Member Candidate\n        wm3AddCandidate(\"Word-3 Member Candidate 1\");\n        wm3AddCandidate(\"Word-3 Member Candidate 2\");\n        wm3AddCandidate(\"Word-3 Member Candidate 3\");\n        wm3AddCandidate(\"Word-3 Member Candidate 4\");\n\n        //Word no 4 Member Candidate\n        wm4AddCandidate(\"Word-4 Member Candidate 1\");\n        wm4AddCandidate(\"Word-4 Member Candidate 2\");\n    }\n\n    function addCandidate (string memory _name) private {\n        candidatesCount ++;\n        candidates[candidatesCount] = Candidate(candidatesCount, _name, 0);\n    }\n\n    function wm1AddCandidate (string memory _name) private {\n        wm1CandidatesCount ++;\n        wm1Candidates[wm1CandidatesCount] = Candidate(wm1CandidatesCount, _name, 0);\n    }\n\n    function wm2AddCandidate (string memory _name) private {\n        wm2CandidatesCount ++;\n        wm2Candidates[wm2CandidatesCount] = Candidate(wm2CandidatesCount, _name, 0);\n    }\n\n    function wm3AddCandidate (string memory _name) private {\n        wm3CandidatesCount ++;\n        wm3Candidates[wm3CandidatesCount] = Candidate(wm3CandidatesCount, _name, 0);\n    }\n\n    function wm4AddCandidate (string memory _name) private {\n        wm4CandidatesCount ++;\n        wm4Candidates[wm4CandidatesCount] = Candidate(wm4CandidatesCount, _name, 0);\n    }\n\n    function vote (uint _candidateId) public {\n        // require that they haven't voted before\n        require(!voters[msg.sender]);\n\n        // require a valid candidate\n        require(_candidateId > 0 && _candidateId <= candidatesCount);\n\n        // record that voter has voted\n        voters[msg.sender] = true;\n\n        // update candidate vote Count\n        candidates[_candidateId].voteCount++;\n        \n        // trigger voted event\n        //emit votedEvent(_candidateId);\n    }\n\n     function wm1Vote (uint _candidateId) public {\n        // require that they haven't voted before\n        require(!wm1Voters[msg.sender]);\n\n        // require a valid candidate\n        require(_candidateId > 0 && _candidateId <= wm1CandidatesCount);\n\n        // record that voter has voted\n        wm1Voters[msg.sender] = true;\n\n        // update candidate vote Count\n        wm1Candidates[_candidateId].voteCount++;\n        \n        // trigger voted event\n        //emit votedEvent(_candidateId);\n    }\n\n    function wm2Vote (uint _candidateId) public {\n        // require that they haven't voted before\n        require(!wm2Voters[msg.sender]);\n\n        // require a valid candidate\n        require(_candidateId > 0 && _candidateId <= wm2CandidatesCount);\n\n        // record that voter has voted\n        wm2Voters[msg.sender] = true;\n\n        // update candidate vote Count\n        wm2Candidates[_candidateId].voteCount++;\n        \n        // trigger voted event\n        //emit votedEvent(_candidateId);\n    }\n\n    function wm3Vote (uint _candidateId) public {\n        // require that they haven't voted before\n        require(!wm3Voters[msg.sender]);\n\n        // require a valid candidate\n        require(_candidateId > 0 && _candidateId <= wm3CandidatesCount);\n\n        // record that voter has voted\n        wm3Voters[msg.sender] = true;\n\n        // update candidate vote Count\n        wm3Candidates[_candidateId].voteCount++;\n        \n        // trigger voted event\n        //emit votedEvent(_candidateId);\n    }\n\n    function wm4Vote (uint _candidateId) public {\n        // require that they haven't voted before\n        require(!wm4Voters[msg.sender]);\n\n        // require a valid candidate\n        require(_candidateId > 0 && _candidateId <= wm4CandidatesCount);\n\n        // record that voter has voted\n        wm4Voters[msg.sender] = true;\n\n        // update candidate vote Count\n        wm4Candidates[_candidateId].voteCount++;\n        \n        // trigger voted event\n        //emit votedEvent(_candidateId);\n    }\n}\n",
  "sourcePath": "C:\\Users\\Amey\\Downloads\\DecentralizedVotingSystem-main\\DecentralizedVotingSystem-main\\contracts\\Election.sol",
  "compiler": {
    "name": "solc",
    "version": "0.8.0+commit.c7dfd78e.Emscripten.clang"
  },
  "schemaVersion": "3.4.4",
  "updatedAt": "2025-03-06T15:41:57.552Z",
  "networkType": "ethereum",
  "devdoc": {
    "kind": "dev",
    "methods": {},
    "version": 1
  },
  "userdoc": {
    "kind": "user",
    "methods": {},
    "version": 1
  }
}